:020000040800F2
:10000000F82B002089010008450D0008A30B00080B
:10001000410D00089D020008911F0008000000002B
:100020000000000000000000000000009B0100082C
:10003000AD020008000000003B0200088D1E000811
:10004000A3010008A3010008A3010008A301000800
:10005000A3010008A3010008A3010008A3010008F0
:10006000A3010008A3010008A3010008A3010008E0
:10007000A3010008A3010008A3010008A3010008D0
:10008000A3010008A3010008A3010008A3010008C0
:10009000A3010008A3010008A3010008A3010008B0
:1000A000A3010008A3010008A3010008A3010008A0
:1000B000A3010008A3010008A3010008A301000890
:1000C000A3010008A3010008A3010008A301000880
:1000D000A3010008A3010008A3010008A301000870
:1000E000A3010008A3010008A3010008000000000C
:1000F0000000000000000000000000000000000000
:1001000000000000A3010008A30100080000000097
:1001100000000000000000000000000000000000DF
:10012000A3010008A3010008A3010008A30100081F
:1001300000000000000000000000000000000000BF
:10014000000000000000000000000000A301000803
:100150000000000000000000A3010008A301000847
:10016000A30100080000000000000000A301000837
:10017000DFF810D000F034F8004800479121000863
:10018000AFF30080F82B0020064880470648004760
:10019000FEE7FEE7FEE7FEE7FEE7FEE7FEE7FEE737
:1001A000FEE7FEE7A91E00087101000872B670475D
:1001B00062B67047EFF3108072B6704780F3108814
:1001C000704730BF704720BF7047B0FA80F070476B
:1001D00090FAA0F0B0FA80F0704790FAA0F0704763
:1001E000064C074D06E0E06840F0010394E8070084
:1001F00098471034AC42F6D3FFF7BEFF78230008CF
:10020000982300081D484FF0FF010170002080F383
:1002100009881B48016881F308881A484FF080510B
:10022000016062B6FEE717484FF0805101607047E9
:1002300014484FF080510160704772B6EFF30980A7
:1002400028B1203880E8F00F0F490968086000B530
:100250000E4880475DF804EB0D480E490A7802709D
:1002600009480D490A680260106890E8F00F2030D4
:1002700080F309884EF0F40E62B6704722ED00E07C
:100280000000002004ED00E0AC0000203910000860
:100290002A0000202B000020B000002000BFFEE755
:1002A0000149486870470000001000E070470021D5
:1002B00007E0002201E0531C9AB26E2AFBDB4B1CC4
:1002C00099B28142F5DB704730B5044604252448D5
:1002D00084421ED3234884421BD8A80600F08FF91D
:1002E0000546042D15D12048006940F002001E4942
:1002F000086108464461006940F040000861C80395
:1003000000F07DF905461848006920F00200164902
:100310000861164800684FF0006101EB8020401E24
:10032000A0421BD3480000F057F90546042D15D113
:100330000D48006940F002000B490861084644611D
:10034000006940F040000861C80300F045F9054627
:100350000548006920F0020003490861284630BDC5
:1003600000ACFF1FFFF3FF1F00200240E0F7FF1F5C
:1003700004200B49C96801F0010109B101200EE018
:100380000749C96801F0040109B1022007E00449E6
:10039000C96801F0100109B1032000E00420704792
:1003A0000020024008B50020009010214E4800F0C7
:1003B000F6FB01F043FC01F031FC0020009001F05D
:1003C0004DFC01F057FB012802D101F0A1FB009088
:1003D000009820F0FF00454988420DD0444900981C
:1003E000884209D00520FFF762FF01F043FB012896
:1003F00002D101F08DFB009000203E4908603C498D
:10040000491E0098884204D14FF47E203949086083
:100410005EE039490098884207D14FF4FC20354905
:10042000086001203549087052E03349491C0098A2
:10043000884206D0009820F470402D49491E884219
:1004400007D14FF47E202B49086001202B4908700A
:100450003EE029494C390098884207D14FF4FF10FB
:100460002449086001202549087031E022494339B8
:100470000098884206D122481E49086001201F4981
:10048000087025E0009820F0FF001849884205D048
:10049000009820F470401649884204D14FF4FF10B0
:1004A0001449086014E0009820F0FF0015498842C4
:1004B00006D0009820F470400D49491C884203D1B1
:1004C0000F480C49086003E04FF4FF100949086029
:1004D0000D490098884202D1094806490860002069
:1004E00001F0BCFB08BD00000008014000461F00F1
:1004F0001530EF00B80000208D25BF00BC000020A3
:1005000000E03F0000471F0017405E0003480069FD
:1005100040F080000149086170470000002002405F
:1005200070B504460D460426214884421BD3214859
:10053000844218D84FF4704000F061F80646042E4B
:1005400011D11D48006940F001001B490861257068
:100550004FF4704000F053F806461748006920F049
:10056000010015490861154800684FF0006101EB72
:100570008020401EA04218D34FF4704000F02CF8A9
:100580000646042E11D10C48006940F001000A49CA
:10059000086125704FF4704000F01EF806460648CA
:1005A000006920F0010004490861304670BD000078
:1005B00000ACFF1FFFF3FF1F00200240E0F7FF1F0A
:1005C0000248034948600348486070472301674573
:1005D00000200240AB89EFCD00B502460423FFF7AF
:1005E000C7FE034603E0FFF7C3FE0346521E012B7E
:1005F00001D1002AF7D102B90523184600BD00B584
:1006000002460423FFF7B4FE034603E0FFF7B0FE03
:100610000346521E012B01D1002AF7D102B905234E
:10062000184600BD2DE9F047044688461646B4F149
:10063000006F03D3A0191049884201D3BDE8F087A9
:10064000FFF7BEFFA4F100694FEA99274FF0006061
:1006500000EB872A5046FFF737FE002506E018F822
:1006600005106019FFF75CFF681C85B2B542F6DB28
:10067000FFF74CFF00BFE1E7000002082DE9F04161
:10068000024600250026002000230024002791F8C0
:1006900003C00CF00F0591F803C00CF0100CBCF176
:1006A000000F03D091F802C04CEA050591F800C094
:1006B000BCF1000F31D0146800202BE04FF0010C8A
:1006C0000CFA00F3B1F800C00CEA03069E4220D1F8
:1006D00083004FF00F0C0CFA03F7BC4305FA03FC40
:1006E0004CEA040491F803C0BCF1280F06D14FF086
:1006F000010C0CFA00FCC2F814C00AE091F803C027
:10070000BCF1480F05D14FF0010C0CFA00FCC2F807
:1007100010C0401C0828D1D31460B1F800C0BCF14F
:10072000FF0F34DD546800202EE000F1080C4FF07C
:10073000010808FA0CF3B1F800C00CEA03069E4267
:1007400021D183004FF00F0C0CFA03F7BC4305FADC
:1007500003FC4CEA040491F803C0BCF1280F05D156
:1007600000F1080C08FA0CF8C2F8148091F803C0E4
:10077000BCF1480F07D100F1080C4FF0010808FA4E
:100780000CF8C2F81080401C0828CED35460BDE895
:10079000F0810000F0B50446B4F1004F72D9002397
:1007A000002224F00045EB0905F07F052A0905F039
:1007B0000F05052B03D0970005FA07F603E057084D
:1007C000BF0005FA07F6062B15D2DFE803F0030594
:1007D000080B0E11EA480FE0E948001D0CE0E8485C
:1007E000083009E0E6480C3006E0E548103003E048
:1007F000E348143000E000BF00BF5AB9052B04D114
:10080000076827F0030707604AE0076827F00F072B
:10081000076045E0012A0BD1052B04D1076827F0BA
:100820000C0707603CE0076827F0F007076037E037
:10083000022A0BD1052B04D1076827F03007076087
:100840002EE0076827F47067076029E0032A0BD1C0
:10085000052B04D1076827F0C007076020E0076870
:1008600027F4704707601BE0042A04D1076827F4C7
:100870007027076014E0052A05D1076827F4700780
:1008800007600DE012E0062A04D1076827F07067C0
:10089000076005E0072A03D1076827F07047076063
:1008A000012902D107683743076067E1B4F5406F5B
:1008B00077D020DC402C75D00CDC042C3FD004DC3D
:1008C000012C4ED0022C6ED138E0102C59D0202CA7
:1008D000F9D169E0B4F5007F76D005DC802C77D0C3
:1008E000B4F5807FEFD197E0B4F5407F6ED0B4F5DA
:1008F000006FE8D1C0E0B4F1807F68D011DCB4F5BE
:10090000803F1ED006DCB4F5804F71D0B4F5004FA7
:10091000D9D115E0B4F5003F14D0B4F5802FD2D171
:1009200011E0B4F1007F74D0B4F1806F72D0B4F1F3
:10093000884F70D0B4F1904FC5D10DE100BF00BF1A
:1009400000BF00BF00BF8E4820384068A0438C4ADB
:10095000203A5060012903D110464068204350607E
:100960000BE1874820384068864A1040844A203A84
:100970005060012904D11046406840F001005060E9
:10098000FBE07F482038406820F030007C4A203A65
:100990005060012904D11046406840F010005060BA
:1009A000EBE079E025E0E7E075482038406820F08A
:1009B0003000734A203A5060012904D11046406843
:1009C00040F020005060D8E036E001E044E083E0F1
:1009D0006B482038406820F0C000694A203A5060D7
:1009E000012904D11046406840F080005060C4E006
:1009F00062E063482038406820F0C000604A203A36
:100A00005060012904D11046406840F04000506019
:100A1000B3E071E080E08FE059482038406820F46E
:100A20004070574A203A5060012904D1104640686E
:100A300040F480705060A0E051482038406820F4B5
:100A400040704F4A203A5060012904D11046406856
:100A500040F40070506090E049482038406820F42D
:100A60004070474A203A5060012904D1104640683E
:100A700040F44070506080E041482038406820F4E5
:100A800040603F4A203A5060012904D11046406836
:100A900040F40060506070E039482038406820F42D
:100AA0004060374A203A5060012904D1104640681E
:100AB00040F44060506060E031482038406820F4E5
:100AC000C0402F4A203A5060012904D110464068A6
:100AD00040F48040506050E029482038406820F0C1
:100AE000E060274A203A5060012904D1104640684E
:100AF00040F08070506040E021482038406820F08D
:100B0000E0601F4A203A5060012904D11046406835
:100B100040F00070506030E019482038406820F004
:100B2000E060174A203A5060012904D1104640681D
:100B300040F08060506020E011482038C06920F00B
:100B400040600F4A203AD061012904D11046C069A3
:100B500040F08060D06110E009482038C06920F082
:100B60004060074A203AD061012904D11046C0698B
:100B700040F00060D06100E000BF00BFF0BD0000A9
:100B800020000140FEFFFF7F0246002093680B40DB
:100B90000BB1012000E00020704741617047016106
:100BA000704700BFFEE7000008B50121084600F0CD
:100BB00071FE0121802000F06DFE0121042000F073
:100BC00069FE0121102000F065FE0121202000F0C7
:100BD00061FE0121082000F05DFE01214806FFF7BB
:100BE000D9FD4020ADF8000002208DF80200102051
:100BF0008DF8030069464D48FFF740FD40214B4802
:100C0000FFF7CBFF8020ADF8000002208DF8020036
:100C100048208DF8030069464448FFF72FFD102057
:100C2000ADF8000002208DF8020010208DF80300BE
:100C300069463F48FFF722FD10213D48FFF7ADFF11
:100C40000820ADF8000002208DF8020010208DF879
:100C5000030069463748FFF711FD08213548FFF7C3
:100C60009CFF4FF40040ADF8000002208DF8020018
:100C700010208DF8030069462F48FFF7FFFC4FF462
:100C800000412D48FFF789FF1020ADF80000022039
:100C90008DF8020010208DF8030069462548FFF703
:100CA000EDFC4FF40050ADF8000002208DF802007A
:100CB00010208DF8030069462048FFF7DFFC022072
:100CC000ADF800008DF8020010208DF80300694691
:100CD0001848FFF7D3FC4FF48050ADF80000022015
:100CE0008DF8020010208DF8030069461248FFF7C6
:100CF000C5FC4FF40060ADF8000002208DF8020042
:100D000010208DF8030069460B48FFF7B7FC4FF43D
:100D10008070ADF8000002208DF8020010208DF8E0
:100D2000030069460448FFF7A9FC08BD001C014008
:100D300000140140000C0140000801400010014077
:100D400000BFFEE77047000008480078012800D087
:100D5000704707480078FA2800DBF9E70448007874
:100D6000401C0349087000BFF2E70000110000209A
:100D70001000002010B500242D480078012800D074
:100D800010BD00BFFFF716FA044600BF29480078DF
:100D900028B900BF2046FFF711FA00BFF0E7254849
:100DA0000078401E2349087008460078002805DDB9
:100DB00000BF2046FFF702FA00BFE1E71E480078B7
:100DC000002805DD00BF2046FFF7F8F900BFD7E790
:100DD00000F0BAFA194908700846007800EB4000A4
:100DE000174951F82000174908600846006816495D
:100DF0000968884205D100BF2046FFF7DFF900BF30
:100E0000BEE710480068D0F88400401C0D4909680E
:100E1000C1F884000D480068401C0C490860FFF7C9
:100E200007FA00BF2046FFF7C9F900BF00BFA7E7D8
:100E30001100002010000020440000202B000020A2
:100E4000A4120020B0000020AC00002068000020A8
:100E500010B500241F480078002800DD10BD1E4892
:100E60000078002800DDF9E700BFFFF7A3F904468A
:100E700000BF00F069FA194908700846007800EBD5
:100E80004000174951F820001649086008460068DC
:100E900015490968884205D100BF2046FFF78EF941
:100EA00000BFDBE70F480068D0F88400401C0D4904
:100EB0000968C1F884000D480068401C0B490860AF
:100EC000FFF7B1F900BF2046FFF778F900BF00BF78
:100ED000C4E7000010000020440000202B00002088
:100EE000A4120020B0000020AC0000206800002008
:100EF00070B50446002518480078002803DD46F642
:100F00006250208070BD15480078012803D045F656
:100F100089602080F6E712480078FA2803DB45F262
:100F200009202080EEE700BF00BFFFF743F9054628
:100F300000BF00BF0A480078401C0949087000F053
:100F4000BDFA00BF00BF2846FFF738F900BF00BF59
:100F50000020208000BFD5E71000002011000020F5
:100F60004400002070B50446002520480078002881
:100F700003DD46F66550208070BD1D4800780128CD
:100F800003D045F689602080F6E71A48007818B942
:100F900046F664502080EFE700BF00BFFFF70AF974
:100FA000054600BF00BF13480078401E1149087075
:100FB0000846007800280ADD00BF00BF2846FFF77A
:100FC000FDF800BF00BF46F663502080D4E700F074
:100FD00083FA00BF00BF2846FFF7F0F800BF00BF4C
:100FE000FFF736FF0020208000BFC5E7100000207B
:100FF00011000020440000202DE9F04106460D4676
:1010000014461DB1B5F5004F02D100E000BF05E068
:1010100045F6256020800020BDE8F08100BFFFF785
:101020003FF98046234642462946304600F072FA90
:1010300007463846F0E7000010B5FFF731F90446DF
:101040001848006818490968884215D01548006892
:10105000D0F88C00201A13490968C1F8880011489B
:101060000068D0F890000F490968D1F8881008444A
:101070000C490968C1F890000B480068C0F88C4022
:1010800008480068D0F8A80008490968884205D2D5
:101090000648006803490968C1F8A8000020034910
:1010A000086010BDAC000020B0000020400000200F
:1010B0002DE9F04105460E461446002727480078E2
:1010C000002804DD47F275202080BDE8F081244827
:1010D0000078002803DD46F663502080F5E736B13E
:1010E000022E05D0042E0AD0082E09D101E000BF3F
:1010F00000BF1DB947F27E202080E6E704E003E050
:1011000045F625602080E0E700BF00BF00BFFFF785
:1011100051F8074600BF00BF234632462946114812
:10112000006800F01DFB208838B100BF00BF3846C2
:10113000FFF744F800BF00BFC7E70A48006800F0A7
:101140008FF900BF00BF3846FFF738F800BF00BF77
:10115000FFF77EFE0020208000BFB6E710000020D1
:1011600044000020AC00002008B500F01FF86A46DB
:1011700000210A48FFF740FF09480068401E08495F
:1011800008600846006838B90648006808606A4682
:1011900000210548FFF730FF08BD00005C16002065
:1011A000A8000020A4000020401700207047000085
:1011B00030B507A5C1F8B45000F1080422681AB18F
:1011C00093681D6AC56101E001A5C56130BD0000DD
:1011D000200000002DE9F0410446256BE68F0AE06F
:1011E000D5F80C8008F108072946384600F00AF8BF
:1011F0002035701E86B2002EF2DC0020E0872063CE
:10120000BDE8F08110B50489012C03D100240460ED
:10121000446011E00C6824B94A680024146002603C
:101220000AE04C6824B90B6800245C60436003E06A
:101230000B684A685A6013600489641E04810024A4
:101240004C600C6010BD2DE9F84306460C4617466D
:101250009846089D94F8360008285BD2DFE800F035
:10126000040508090607323300BF00BF00BF52E083
:1012700000BF94F83400032807D143463A4621467C
:101280003046009500F04AF803E02765A4F8548042
:10129000256436B12046FFF79DFF21463046FFF713
:1012A00087FF94F83600032802D1204600F0B6FAF2
:1012B000204600F081F800203434A070607004F8FB
:1012C000340928E000BF94F83400032807D14346CE
:1012D0003A4621463046009500F020F803E02765A5
:1012E000A4F85480256436B12046FFF773FF2146E9
:1012F0003046FFF75DFF94F83600072802D12046FC
:1013000000F08CFA04203434A0700020607004F8DF
:10131000340900E000BF00BFBDE8F883F0B5044623
:10132000059E086BCD8F0AE0C768A74204D104610F
:1013300042610383C66104E020306F1EBDB2002D00
:10134000F2DC00BFF0BD000070B50025074C03E0E3
:1013500005F12000C5B2241D20680028F8D02068BF
:10136000FEF733FF2844C5B2284670BD04000020B4
:1013700030B5420900F01F030121C3F11F04A14051
:10138000034C54F822400C43014D45F8224030BD37
:101390000400002030B5420900F01F030121C3F111
:1013A0001F04A140034C54F822408C43014D45F8E2
:1013B000224030BD0400002010B5044694F83700E8
:1013C000FFF7D6FF94F8370005490978884203D122
:1013D000204600F027F802E0204600F003F810BD98
:1013E0002A00002010B590F8373003EB43030C4C73
:1013F00004EB83010B893BB901230B810023C360FC
:1014000003610860486009E00B895B1C0B810B6875
:10141000C360002303610A681061086010BD00000A
:10142000A412002010B590F8373003EB43030B4CA7
:1014300004EB83010B893BB901230B810023C360BB
:1014400003610860486008E00B895B1C0B81002386
:10145000C3604A680261D060486010BDA4120020D9
:101460002DE9F041054695F8370000EB40001249A0
:1014700001EB80042F69EE6887B946B9002020810E
:101480002060606095F83700FFF784FF0EE0208948
:10149000401E208100203061266007E02089401E28
:1014A0002081FE600EB9676000E03761002028618E
:1014B000E860BDE8F0810000A412002010B50448E7
:1014C0000078012803D1FEF7EBFE0249086010BD49
:1014D000440000203800002010B50A48007880B988
:1014E000FEF7DEFE08490968441A08480068A04271
:1014F00001D20648046006480068A04201D20448B0
:10150000046010BD44000020380000203C00002092
:10151000400000202DE9F8430446884617461D4642
:101520004FF0000900BF00BFFEF744FE814600BF38
:1015300000BF0CB96748046827640020288094F82D
:101540003600082876D2DFE800F00405505106077F
:10155000525300BF00BF00BF0420012804D002285E
:1015600013D0042833D122E0606CFF280CD100BFD7
:1015700000BF4846FEF722FE00BF00BF46F6C5503A
:1015800028800020BDE8F88322E04FF6FF71606CF0
:1015900088420BD100BF00BF4846FEF70FFE00BFD8
:1015A00000BF46F6C55028800020EBE710E0606CD5
:1015B000401C58B900BF00BF4846FEF7FFFD00BF02
:1015C00000BF46F6C55028800020DBE700E000BFE2
:1015D00000BF606C401C6064666C00BF00BF484682
:1015E000FEF7ECFD00BF00BF71E000BF00BF00BF11
:1015F00094F83400072815D100231A4621461846CE
:101600000097FFF720FE666C00BF00BF4846FEF75C
:10161000D5FD00BF00BF08F4004000284AD1FFF705
:1016200017FC47E00420012805D0022813D0042825
:1016300033D122E03FE0606CFF280BD100BF00BF38
:101640004846FEF7BBFD00BF00BF46F6C5502880E8
:10165000002097E722E04FF6FF71606C88420BD1C3
:1016600000BF00BF4846FEF7A9FD00BF00BF46F619
:10167000C5502880002085E710E0606C401C58B9F8
:1016800000BF00BF4846FEF799FD00BF00BF46F609
:10169000C5502880002075E700E000BF00BF606CE7
:1016A000401C6064666C00BF00BF4846FEF786FDC4
:1016B00000BF00BF0BE000BF00BF4846FEF77EFD45
:1016C00000BF00BF46F62D602880002600BF00BF87
:1016D000304657E7AC00002070B51546066846B99D
:1016E0008D6400264E618E61C8610160012686808E
:1016F00033E0046802682B4624E0966C9E421DD3BA
:1017000096696EB98B6400268E614A61C861966CD9
:10171000F61A9664916101608688761C86800CE0DA
:1017200094698B648C614A61C861966CF61A966400
:10173000916161618688761C868070BD966C9B1B6A
:1017400014465269002AD8D18B648C6100264E6100
:10175000C86161618688761C868000BFEDE7000065
:101760002DE9F04104460D4690461F46B8F1040F9E
:101770000ED1284800682E1A16F5803F01D8002E99
:101780003CD10020A06447F27E203880BDE8F08183
:10179000B8F1080F29D11F49E06C0968081AA8425E
:1017A00005D92E461B4800682844E06426E0194904
:1017B000E06C0968081A2E1A16F5803F00D886B921
:1017C0001449E06C0968081AB0FBF5F005FB0050FD
:1017D000E16C0844E0640020A06447F27E20388079
:1017E000D4E7E06C2844E06408E00DB12E4605E043
:1017F0000020A06447F27E203880C7E7012084F8EB
:101800003600324621460448FFF766FF0020388044
:1018100000BFBBE7740000207C00002030B5C26927
:1018200083694169ABB929B9002414609480846448
:10183000C4611EE000248C618C6C856C2C448C642B
:1018400011609488641E9480002444618464C4619F
:101850000FE0596121B18B618C6C856C2C448C64D8
:10186000002484619488641E94800024446184640C
:10187000C46130BD29B1064AD2690243044BDA6122
:1018800004E0034AD2698243014BDA6170470000E9
:101890000010024029B1064A92690243044B9A6142
:1018A00004E0034A92698243014B9A617047000049
:1018B0000010024010B50246002300210020234CF6
:1018C000646804F48033214CE16A21F0074103B9D4
:1018D00039E010461D4C646804F4003404B140083B
:1018E0001B4CA04203D91B4CA04200D22BE01A4C47
:1018F000A04205D9194CA04202D241F0807122E0E9
:10190000174CA04205D9174CA04202D241F00071F9
:1019100019E0144CA04205D9134CA04202D241F068
:10192000407110E0114CA04205D9114CA04202D2E6
:1019300041F0806107E00E4CA04204D90D4CA0425A
:1019400001D241F0A061014CE16210BD00100240E3
:1019500060823B00404B4C0080584F00105E5F009F
:1019600094357700101B7F0020BCBE00286BEE0072
:1019700030D73D01D8E9DC01012806D10649496D7F
:1019800041F03001044A516505E00349496D21F0F9
:101990003001014A516570470010024070B505469C
:1019A0000C46164610210F48FFF7F7F8032000F009
:1019B000F5F8C4F3074000F0F1F8C4F3072000F095
:1019C000EDF8E0B200F0EAF803E000F083F82870E8
:1019D0006D1C301EA6F10106F7D110210148FFF75A
:1019E000DEF870BD000801402DE9F05F81460E462B
:1019F0001746A52000F0D2F8300B0503C6F30B0AFA
:101A00004FF00008C3462EE04FF480522946184894
:101A1000FFF7C4FF284600F09FF80FE0404608F1AA
:101A2000010819F8002050460AF1010A10490A5429
:101A3000BAF5805F02D14FF0000A01E0B845EDD35E
:101A400000BF002409E005EB0421094A02EB042051
:101A50004FF4807200F010F8641C102CF3D305F5DD
:101A600080550BF1010BB845CED3BDE8F09F0000C7
:101A7000F81700200120704770B505460C46164641
:101A800000F0DCF810211248FFF787F8022000F080
:101A900085F8C4F3074000F081F8C4F3072000F094
:101AA0007DF8E0B200F07AF803E0287800F076F8EC
:101AB0006D1C301EA6F101018EB2F6D11021044832
:101AC000FFF76DF800F08CF800F0A8F870BD00008A
:101AD0000008014070B50024002512E06006040EE5
:101AE00020210A48FFF75BF840210848FFF74CF82F
:101AF00008B144F0010420210448FFF74EF8681CA7
:101B0000C5B2082DEADB204670BD00000008014088
:101B10002DE9F041002400250026002710210D4862
:101B2000FFF73BF89F2000F039F8FFF7D3FF054699
:101B3000FFF7D0FF0646FFF7CDFF07461021054807
:101B4000FFF72DF8280440EA062040EA0704204663
:101B5000BDE8F0810008014010B5044600F06EF8C1
:101B600010210D48FFF719F8202000F017F8C4F3F2
:101B7000074000F013F8C4F3072000F00FF8E0B2BC
:101B800000F00CF810210448FFF709F800F028F8DD
:101B900000F044F810BD00000008014070B5044694
:101BA000002517E004F0800020B180210B48FEF7EB
:101BB000F6FF03E080210948FEF7EFFF20210748E8
:101BC000FEF7EDFF6006040E20210448FEF7E5FF56
:101BD000681CC5B2082DE5DB70BD0000000801409F
:101BE00038B500240020009010210B48FEF7D5FFE7
:101BF0000520FFF7D3FF00BFFFF76CFF0446FFF798
:101C000069FF009004F001000028F5D1102102487E
:101C1000FEF7C5FF38BD00000008014010B51021D7
:101C20000548FEF7BAFF0420FFF7B8FF102102486D
:101C3000FEF7B5FF10BD00000008014010B51021EF
:101C40000548FEF7AAFF0620FFF7A8FF102102486B
:101C5000FEF7A5FF10BD00000008014010B50446C6
:101C6000FFF7ECFF10211148FEF797FF0120FFF767
:101C700095FF2046FFF792FF10210C48FEF78FFFDB
:101C8000FFF7AEFF10210948FEF787FF3120FFF76D
:101C900085FF1820FFF782FF10210448FEF77FFF21
:101CA000FFF79EFFFFF7BAFF10BD000000080140DC
:101CB00010B500F001F810BD1CB500200190009097
:101CC0003F48006840F480303D49086000BF3C4810
:101CD000006800F4003000900198401C01900098CA
:101CE00018B90198B0F5405FF1D13548006800F4AB
:101CF000003010B10120009001E000200090009819
:101D000001285BD12F48006840F010002D49086081
:101D10000846006820F0070008600846006840F0A8
:101D20000400086026484068254948600846406825
:101D300020F4605048600846406840F40050486015
:101D40000846406820F4E06048600846406840F477
:101D500080604860084640681B4908401849486050
:101D60000846406819490843154948601848FFF774
:101D7000A1FD1348006840F080701149086000BF61
:101D80000F48006800F000700028F9D00120FFF72C
:101D9000F3FD0B48406820F00300094948600846FD
:101DA000406840F00200486000BF0548406800F00D
:101DB0000C000828F9D10020FFF7DEFD1CBD000053
:101DC0000010024000200240FFFFC01F000005205D
:101DD00000127A0008B501210420FFF75BFD2020E6
:101DE000ADF8000002208DF8020010208DF80300ED
:101DF00069461B48FEF742FC20211948FEF7CFFE3A
:101E00008020ADF8000002208DF8020010208DF82F
:101E1000030069461248FEF731FC80211048FEF7A6
:101E2000BEFE4020ADF8000002208DF80200042024
:101E30008DF8030069460A48FEF720FC1020ADF833
:101E4000000002208DF8020010208DF80300694682
:101E50000348FEF713FC10210148FEF7A0FE08BD61
:101E600000080140042808D14FF0E021096941F041
:101E700004014FF0E022116107E04FF0E021096911
:101E800021F004014FF0E0221161704710B50548C0
:101E90000078012805D1FEF757FFFFF765F9FEF737
:101EA00069FF10BD1100002010B501210807FFF7E0
:101EB000E1FC1C48007840F004001A49503981F8D0
:101EC000500000214FF08050FFF7D4FC1648006806
:101ED00040F0010014490860084640681349084072
:101EE0001149486008460068114908400E490860D9
:101EF0000846006820F480200860084640680D49C4
:101F00000840094948600846006B0B4908400649EB
:101F100008634FF41F008860FFF7CAFE07480849AE
:101F2000086010BD50700040001002400C00FFE837
:101F3000FFFFF6FEFFFF001700FFFEFE0090010806
:101F400008ED00E0012080F3138800BF00BF00BF50
:101F500000BF00BF00BFBFF34F8F00BF00BF00BF77
:101F60000948006800F4E06008490843001D06497C
:101F7000086000BF00BF00BFBFF34F8F00BF00BFAE
:101F800000BF00BF00BFFDE70CED00E00000FA0558
:101F900000BFFEE702E008C8121F08C1002AFAD1FC
:101FA00070477047002001E001C1121F002AFBD1D9
:101FB0007047000070B504466FF00400FFF752FF51
:101FC0002046E11704EB5171C1F3C701114A1170AA
:101FD000E11704EB5171CD100F4800680F49B1FBB8
:101FE000F0F045430C4800684FF47A71B1FBF0F013
:101FF0000B4908804FF0E020006940F002004FF0EC
:10200000E021086108464561006940F0010008616F
:1020100070BD0000B4000020E422000840420F0020
:10202000B600002070B504460F480078A0B10F48F4
:10203000007888B90E480088844206DB0C48008886
:1020400094FBF0F5284600F01FF80948008894FB3F
:10205000F0F100FB114084B24FF47A7104FB01F0FF
:1020600000F01AF870BD00001100002010000020E0
:10207000B600002008B56846FEF73AFF08BD08B56F
:102080006846FEF76FFF08BD38B504466A4608216A
:102090002046FFF70DF838BD2DE9F047074600262A
:1020A0004FF0E020D0F814901048007807FB00F8BB
:1020B000FFF7E0FF4FF0E020856911E04FF0E020EE
:1020C0008469AC420CD0AC4202D2281B064403E027
:1020D000A9EB0400284406442546464500D300E009
:1020E000ECE700BFFFF7CBFFBDE8F087B4000020AE
:1020F0002DE9F04105460E4617469846002400BFDC
:1021000016E004EB44000D4911F82000A8420DD15F
:1021100004EB44000A4602EB800040688119424605
:102120003846FFF73BFC0120BDE8F081601CC4B2DB
:10213000082CE6DB4FF0FF30F6E70000182300081C
:102140002DE9F04105460E4617469846002400BF8B
:1021500016E004EB44000D4911F82000A8420DD10F
:1021600004EB44000A4602EB8000406881194246B5
:102170003846FFF739FC0120BDE8F081601CC4B28D
:10218000082CE6DB4FF0FF30F6E7000018230008CC
:102190007CB50020019000900024AA25FFF71AFECC
:1021A000FEF700F99020FFF705FFFEF7FDFC4FF466
:1021B0007A70FFF737FF01236A4600210720FFF7F7
:1021C00097FF042301AA01210720FFF791FF9DF843
:1021D0000000552801D0FFF7B5FE0198B0F5205F4B
:1021E00003D325490198884201D9FFF7ABFE28E0C7
:1021F000611D4FF48063214A0720FFF779FF4FF4F8
:1022000080621E4904F10060FEF70CFA04F5806458
:1022100004F580600199884213D90198844200D165
:1022200010E00198031B611D144A0720FFF760FFAF
:102230000198001B82B2114904F10060FEF7F2F927
:1022400000E0D5E700BFAA20009001236A460021E4
:102250000720FFF775FF40210948FEF7A0FC4FF467
:102260007A70FFF7DFFE40210548FEF796FCFFF786
:1022700069FE00207CBD0000FB1F0300C0000020A1
:10228000001C0140C00400200C0000008000000081
:10229000000200000000000000000000000000003C
:1022A000000000000000000000000000000000002E
:1022B000C006002080000000000200003200000084
:1022C00020030000C00800200A0000000A000000EF
:1022D000E00B00200C000000800000000002000065
:1022E00040000000E803000001000000E00D0020B5
:1022F0000C00000080000000000200000B00000045
:1023000064000000E00F00200C00000080000000CE
:1023100000020000200D000000000000000000008E
:10232000001000000100000000100000001000007C
:102330000200000000200000002000000300000058
:102340000040000000E00100040000000020020046
:1023500000E00100050000000000040000C01200C1
:102360000600000000C0160000100000070000007A
:1023700000D0160000200300982300080000002071
:10238000C0000000941F000858240008C00000206E
:10239000382B0000A41F000800000000000000000F
:1023A000000000000000000000000000000000002D
:1023B000000000000000000000000000000000001D
:1023C000000000000000000000000000000000000D
:1023D00000000000000000000000000000000000FD
:1023E00000000000000000000000000000000000ED
:1023F00000000000000000000000000000000000DD
:1024000000000000000000000000000000000000CC
:1024100000000000000000000000000000000000BC
:1024200000000000000000000000000000000000AC
:10243000000000000000000000000000000000009C
:10244000000000000000000000000000000000008C
:08245000000000000000000084
:04000005080001717D
:00000001FF
